{
  "contractName": "MartianMarket",
  "abi": [
    {
      "inputs": [],
      "stateMutability": "nonpayable",
      "type": "constructor"
    },
    {
      "anonymous": false,
      "inputs": [
        {
          "indexed": true,
          "internalType": "address",
          "name": "owner",
          "type": "address"
        },
        {
          "indexed": true,
          "internalType": "address",
          "name": "approved",
          "type": "address"
        },
        {
          "indexed": true,
          "internalType": "uint256",
          "name": "tokenId",
          "type": "uint256"
        }
      ],
      "name": "Approval",
      "type": "event"
    },
    {
      "anonymous": false,
      "inputs": [
        {
          "indexed": true,
          "internalType": "address",
          "name": "owner",
          "type": "address"
        },
        {
          "indexed": true,
          "internalType": "address",
          "name": "operator",
          "type": "address"
        },
        {
          "indexed": false,
          "internalType": "bool",
          "name": "approved",
          "type": "bool"
        }
      ],
      "name": "ApprovalForAll",
      "type": "event"
    },
    {
      "anonymous": false,
      "inputs": [
        {
          "indexed": true,
          "internalType": "address",
          "name": "previousOwner",
          "type": "address"
        },
        {
          "indexed": true,
          "internalType": "address",
          "name": "newOwner",
          "type": "address"
        }
      ],
      "name": "OwnershipTransferred",
      "type": "event"
    },
    {
      "anonymous": false,
      "inputs": [
        {
          "indexed": true,
          "internalType": "address",
          "name": "from",
          "type": "address"
        },
        {
          "indexed": true,
          "internalType": "address",
          "name": "to",
          "type": "address"
        },
        {
          "indexed": true,
          "internalType": "uint256",
          "name": "tokenId",
          "type": "uint256"
        }
      ],
      "name": "Transfer",
      "type": "event"
    },
    {
      "inputs": [
        {
          "internalType": "address",
          "name": "to",
          "type": "address"
        },
        {
          "internalType": "uint256",
          "name": "tokenId",
          "type": "uint256"
        }
      ],
      "name": "approve",
      "outputs": [],
      "stateMutability": "nonpayable",
      "type": "function"
    },
    {
      "inputs": [
        {
          "internalType": "uint256",
          "name": "",
          "type": "uint256"
        }
      ],
      "name": "auctions",
      "outputs": [
        {
          "internalType": "contract MartianAuction",
          "name": "",
          "type": "address"
        }
      ],
      "stateMutability": "view",
      "type": "function",
      "constant": true
    },
    {
      "inputs": [
        {
          "internalType": "address",
          "name": "owner",
          "type": "address"
        }
      ],
      "name": "balanceOf",
      "outputs": [
        {
          "internalType": "uint256",
          "name": "",
          "type": "uint256"
        }
      ],
      "stateMutability": "view",
      "type": "function",
      "constant": true
    },
    {
      "inputs": [],
      "name": "baseURI",
      "outputs": [
        {
          "internalType": "string",
          "name": "",
          "type": "string"
        }
      ],
      "stateMutability": "view",
      "type": "function",
      "constant": true
    },
    {
      "inputs": [
        {
          "internalType": "uint256",
          "name": "tokenId",
          "type": "uint256"
        }
      ],
      "name": "getApproved",
      "outputs": [
        {
          "internalType": "address",
          "name": "",
          "type": "address"
        }
      ],
      "stateMutability": "view",
      "type": "function",
      "constant": true
    },
    {
      "inputs": [
        {
          "internalType": "address",
          "name": "owner",
          "type": "address"
        },
        {
          "internalType": "address",
          "name": "operator",
          "type": "address"
        }
      ],
      "name": "isApprovedForAll",
      "outputs": [
        {
          "internalType": "bool",
          "name": "",
          "type": "bool"
        }
      ],
      "stateMutability": "view",
      "type": "function",
      "constant": true
    },
    {
      "inputs": [],
      "name": "name",
      "outputs": [
        {
          "internalType": "string",
          "name": "",
          "type": "string"
        }
      ],
      "stateMutability": "view",
      "type": "function",
      "constant": true
    },
    {
      "inputs": [],
      "name": "owner",
      "outputs": [
        {
          "internalType": "address",
          "name": "",
          "type": "address"
        }
      ],
      "stateMutability": "view",
      "type": "function",
      "constant": true
    },
    {
      "inputs": [
        {
          "internalType": "uint256",
          "name": "tokenId",
          "type": "uint256"
        }
      ],
      "name": "ownerOf",
      "outputs": [
        {
          "internalType": "address",
          "name": "",
          "type": "address"
        }
      ],
      "stateMutability": "view",
      "type": "function",
      "constant": true
    },
    {
      "inputs": [],
      "name": "renounceOwnership",
      "outputs": [],
      "stateMutability": "nonpayable",
      "type": "function"
    },
    {
      "inputs": [
        {
          "internalType": "address",
          "name": "from",
          "type": "address"
        },
        {
          "internalType": "address",
          "name": "to",
          "type": "address"
        },
        {
          "internalType": "uint256",
          "name": "tokenId",
          "type": "uint256"
        }
      ],
      "name": "safeTransferFrom",
      "outputs": [],
      "stateMutability": "nonpayable",
      "type": "function"
    },
    {
      "inputs": [
        {
          "internalType": "address",
          "name": "from",
          "type": "address"
        },
        {
          "internalType": "address",
          "name": "to",
          "type": "address"
        },
        {
          "internalType": "uint256",
          "name": "tokenId",
          "type": "uint256"
        },
        {
          "internalType": "bytes",
          "name": "_data",
          "type": "bytes"
        }
      ],
      "name": "safeTransferFrom",
      "outputs": [],
      "stateMutability": "nonpayable",
      "type": "function"
    },
    {
      "inputs": [
        {
          "internalType": "address",
          "name": "operator",
          "type": "address"
        },
        {
          "internalType": "bool",
          "name": "approved",
          "type": "bool"
        }
      ],
      "name": "setApprovalForAll",
      "outputs": [],
      "stateMutability": "nonpayable",
      "type": "function"
    },
    {
      "inputs": [
        {
          "internalType": "bytes4",
          "name": "interfaceId",
          "type": "bytes4"
        }
      ],
      "name": "supportsInterface",
      "outputs": [
        {
          "internalType": "bool",
          "name": "",
          "type": "bool"
        }
      ],
      "stateMutability": "view",
      "type": "function",
      "constant": true
    },
    {
      "inputs": [],
      "name": "symbol",
      "outputs": [
        {
          "internalType": "string",
          "name": "",
          "type": "string"
        }
      ],
      "stateMutability": "view",
      "type": "function",
      "constant": true
    },
    {
      "inputs": [
        {
          "internalType": "uint256",
          "name": "index",
          "type": "uint256"
        }
      ],
      "name": "tokenByIndex",
      "outputs": [
        {
          "internalType": "uint256",
          "name": "",
          "type": "uint256"
        }
      ],
      "stateMutability": "view",
      "type": "function",
      "constant": true
    },
    {
      "inputs": [
        {
          "internalType": "address",
          "name": "owner",
          "type": "address"
        },
        {
          "internalType": "uint256",
          "name": "index",
          "type": "uint256"
        }
      ],
      "name": "tokenOfOwnerByIndex",
      "outputs": [
        {
          "internalType": "uint256",
          "name": "",
          "type": "uint256"
        }
      ],
      "stateMutability": "view",
      "type": "function",
      "constant": true
    },
    {
      "inputs": [
        {
          "internalType": "uint256",
          "name": "tokenId",
          "type": "uint256"
        }
      ],
      "name": "tokenURI",
      "outputs": [
        {
          "internalType": "string",
          "name": "",
          "type": "string"
        }
      ],
      "stateMutability": "view",
      "type": "function",
      "constant": true
    },
    {
      "inputs": [],
      "name": "totalSupply",
      "outputs": [
        {
          "internalType": "uint256",
          "name": "",
          "type": "uint256"
        }
      ],
      "stateMutability": "view",
      "type": "function",
      "constant": true
    },
    {
      "inputs": [
        {
          "internalType": "address",
          "name": "from",
          "type": "address"
        },
        {
          "internalType": "address",
          "name": "to",
          "type": "address"
        },
        {
          "internalType": "uint256",
          "name": "tokenId",
          "type": "uint256"
        }
      ],
      "name": "transferFrom",
      "outputs": [],
      "stateMutability": "nonpayable",
      "type": "function"
    },
    {
      "inputs": [
        {
          "internalType": "address",
          "name": "newOwner",
          "type": "address"
        }
      ],
      "name": "transferOwnership",
      "outputs": [],
      "stateMutability": "nonpayable",
      "type": "function"
    },
    {
      "inputs": [
        {
          "internalType": "string",
          "name": "tokenURI",
          "type": "string"
        }
      ],
      "name": "registerLand",
      "outputs": [],
      "stateMutability": "payable",
      "type": "function",
      "payable": true
    },
    {
      "inputs": [
        {
          "internalType": "uint256",
          "name": "tokenId",
          "type": "uint256"
        }
      ],
      "name": "createAuction",
      "outputs": [],
      "stateMutability": "nonpayable",
      "type": "function"
    },
    {
      "inputs": [
        {
          "internalType": "uint256",
          "name": "tokenId",
          "type": "uint256"
        }
      ],
      "name": "endAuction",
      "outputs": [],
      "stateMutability": "nonpayable",
      "type": "function"
    },
    {
      "inputs": [
        {
          "internalType": "uint256",
          "name": "tokenId",
          "type": "uint256"
        }
      ],
      "name": "getAuction",
      "outputs": [
        {
          "internalType": "contract MartianAuction",
          "name": "auction",
          "type": "address"
        }
      ],
      "stateMutability": "view",
      "type": "function",
      "constant": true
    },
    {
      "inputs": [
        {
          "internalType": "uint256",
          "name": "tokenId",
          "type": "uint256"
        }
      ],
      "name": "auctionEnded",
      "outputs": [
        {
          "internalType": "bool",
          "name": "",
          "type": "bool"
        }
      ],
      "stateMutability": "view",
      "type": "function",
      "constant": true
    },
    {
      "inputs": [
        {
          "internalType": "uint256",
          "name": "tokenId",
          "type": "uint256"
        }
      ],
      "name": "highestBid",
      "outputs": [
        {
          "internalType": "uint256",
          "name": "",
          "type": "uint256"
        }
      ],
      "stateMutability": "view",
      "type": "function",
      "constant": true
    },
    {
      "inputs": [
        {
          "internalType": "uint256",
          "name": "tokenId",
          "type": "uint256"
        },
        {
          "internalType": "address",
          "name": "sender",
          "type": "address"
        }
      ],
      "name": "pendingReturn",
      "outputs": [
        {
          "internalType": "uint256",
          "name": "",
          "type": "uint256"
        }
      ],
      "stateMutability": "view",
      "type": "function",
      "constant": true
    },
    {
      "inputs": [
        {
          "internalType": "uint256",
          "name": "tokenId",
          "type": "uint256"
        }
      ],
      "name": "bid",
      "outputs": [],
      "stateMutability": "payable",
      "type": "function",
      "payable": true
    }
  ],
  "bytecode": "0x608060405233600b60006101000a81548173ffffffffffffffffffffffffffffffffffffffff021916908373ffffffffffffffffffffffffffffffffffffffff1602179055503480156200005257600080fd5b506040518060400160405280600d81526020017f4d61727469616e4d61726b6574000000000000000000000000000000000000008152506040518060400160405280600481526020017f4d41525300000000000000000000000000000000000000000000000000000000815250620000d76301ffc9a760e01b6200020a60201b60201c565b8160069080519060200190620000ef9291906200031b565b508060079080519060200190620001089291906200031b565b50620001216380ac58cd60e01b6200020a60201b60201c565b62000139635b5e139f60e01b6200020a60201b60201c565b6200015163780e9d6360e01b6200020a60201b60201c565b50506000620001656200031360201b60201c565b905080600a60006101000a81548173ffffffffffffffffffffffffffffffffffffffff021916908373ffffffffffffffffffffffffffffffffffffffff1602179055508073ffffffffffffffffffffffffffffffffffffffff16600073ffffffffffffffffffffffffffffffffffffffff167f8be0079c531659141344cd1fd0a4f28419497f9722a3daafe3b4186f6b6457e060405160405180910390a350620003ca565b63ffffffff60e01b817bffffffffffffffffffffffffffffffffffffffffffffffffffffffff19161415620002a7576040517f08c379a000000000000000000000000000000000000000000000000000000000815260040180806020018281038252601c8152602001807f4552433136353a20696e76616c696420696e746572666163652069640000000081525060200191505060405180910390fd5b6001600080837bffffffffffffffffffffffffffffffffffffffffffffffffffffffff19167bffffffffffffffffffffffffffffffffffffffffffffffffffffffff1916815260200190815260200160002060006101000a81548160ff02191690831515021790555050565b600033905090565b828054600181600116156101000203166002900490600052602060002090601f016020900481019282601f106200035e57805160ff19168380011785556200038f565b828001600101855582156200038f579182015b828111156200038e57825182559160200191906001019062000371565b5b5090506200039e9190620003a2565b5090565b620003c791905b80821115620003c3576000816000905550600101620003a9565b5090565b90565b61468c80620003da6000396000f3fe6080604052600436106101c25760003560e01c8063715018a6116100f7578063b1dc7b8b11610095578063d5563f3111610064578063d5563f3114610c7f578063e985e9c514610cba578063f2fde38b14610d43578063fbed216b14610d94576101c2565b8063b1dc7b8b14610a0f578063b88d4fde14610a7e578063b9a2de3a14610b90578063c87b56dd14610bcb576101c2565b806395d89b41116100d157806395d89b41146108805780639e71238714610910578063a22cb46514610963578063b14c63c5146109c0576101c2565b8063715018a61461079757806378bd7935146107ae5780638da5cb5b14610829576101c2565b806342842e0e11610164578063571a26a01161013e578063571a26a0146105ac5780636352211e146106275780636c0360eb146106a257806370a0823114610732576101c2565b806342842e0e146104b4578063454a2ab31461052f5780634f6ccce71461055d576101c2565b8063095ea7b3116101a0578063095ea7b31461034457806318160ddd1461039f57806323b872dd146103ca5780632f745c5914610445576101c2565b806301ffc9a7146101c757806306fdde0314610239578063081812fc146102c9575b600080fd5b3480156101d357600080fd5b5061021f600480360360208110156101ea57600080fd5b8101908080357bffffffffffffffffffffffffffffffffffffffffffffffffffffffff19169060200190929190505050610e4f565b604051808215151515815260200191505060405180910390f35b34801561024557600080fd5b5061024e610eb6565b6040518080602001828103825283818151815260200191508051906020019080838360005b8381101561028e578082015181840152602081019050610273565b50505050905090810190601f1680156102bb5780820380516001836020036101000a031916815260200191505b509250505060405180910390f35b3480156102d557600080fd5b50610302600480360360208110156102ec57600080fd5b8101908080359060200190929190505050610f58565b604051808273ffffffffffffffffffffffffffffffffffffffff1673ffffffffffffffffffffffffffffffffffffffff16815260200191505060405180910390f35b34801561035057600080fd5b5061039d6004803603604081101561036757600080fd5b81019080803573ffffffffffffffffffffffffffffffffffffffff16906020019092919080359060200190929190505050610ff3565b005b3480156103ab57600080fd5b506103b4611137565b6040518082815260200191505060405180910390f35b3480156103d657600080fd5b50610443600480360360608110156103ed57600080fd5b81019080803573ffffffffffffffffffffffffffffffffffffffff169060200190929190803573ffffffffffffffffffffffffffffffffffffffff16906020019092919080359060200190929190505050611148565b005b34801561045157600080fd5b5061049e6004803603604081101561046857600080fd5b81019080803573ffffffffffffffffffffffffffffffffffffffff169060200190929190803590602001909291905050506111be565b6040518082815260200191505060405180910390f35b3480156104c057600080fd5b5061052d600480360360608110156104d757600080fd5b81019080803573ffffffffffffffffffffffffffffffffffffffff169060200190929190803573ffffffffffffffffffffffffffffffffffffffff16906020019092919080359060200190929190505050611219565b005b61055b6004803603602081101561054557600080fd5b8101908080359060200190929190505050611239565b005b34801561056957600080fd5b506105966004803603602081101561058057600080fd5b810190808035906020019092919050505061135d565b6040518082815260200191505060405180910390f35b3480156105b857600080fd5b506105e5600480360360208110156105cf57600080fd5b8101908080359060200190929190505050611380565b604051808273ffffffffffffffffffffffffffffffffffffffff1673ffffffffffffffffffffffffffffffffffffffff16815260200191505060405180910390f35b34801561063357600080fd5b506106606004803603602081101561064a57600080fd5b81019080803590602001909291905050506113b3565b604051808273ffffffffffffffffffffffffffffffffffffffff1673ffffffffffffffffffffffffffffffffffffffff16815260200191505060405180910390f35b3480156106ae57600080fd5b506106b76113ea565b6040518080602001828103825283818151815260200191508051906020019080838360005b838110156106f75780820151818401526020810190506106dc565b50505050905090810190601f1680156107245780820380516001836020036101000a031916815260200191505b509250505060405180910390f35b34801561073e57600080fd5b506107816004803603602081101561075557600080fd5b81019080803573ffffffffffffffffffffffffffffffffffffffff16906020019092919050505061148c565b6040518082815260200191505060405180910390f35b3480156107a357600080fd5b506107ac611561565b005b3480156107ba57600080fd5b506107e7600480360360208110156107d157600080fd5b81019080803590602001909291905050506116d1565b604051808273ffffffffffffffffffffffffffffffffffffffff1673ffffffffffffffffffffffffffffffffffffffff16815260200191505060405180910390f35b34801561083557600080fd5b5061083e61170e565b604051808273ffffffffffffffffffffffffffffffffffffffff1673ffffffffffffffffffffffffffffffffffffffff16815260200191505060405180910390f35b34801561088c57600080fd5b50610895611738565b6040518080602001828103825283818151815260200191508051906020019080838360005b838110156108d55780820151818401526020810190506108ba565b50505050905090810190601f1680156109025780820380516001836020036101000a031916815260200191505b509250505060405180910390f35b34801561091c57600080fd5b506109496004803603602081101561093357600080fd5b81019080803590602001909291905050506117da565b604051808215151515815260200191505060405180910390f35b34801561096f57600080fd5b506109be6004803603604081101561098657600080fd5b81019080803573ffffffffffffffffffffffffffffffffffffffff1690602001909291908035151590602001909291905050506118ed565b005b3480156109cc57600080fd5b506109f9600480360360208110156109e357600080fd5b8101908080359060200190929190505050611aa5565b6040518082815260200191505060405180910390f35b348015610a1b57600080fd5b50610a6860048036036040811015610a3257600080fd5b8101908080359060200190929190803573ffffffffffffffffffffffffffffffffffffffff169060200190929190505050611bb8565b6040518082815260200191505060405180910390f35b348015610a8a57600080fd5b50610b8e60048036036080811015610aa157600080fd5b81019080803573ffffffffffffffffffffffffffffffffffffffff169060200190929190803573ffffffffffffffffffffffffffffffffffffffff1690602001909291908035906020019092919080359060200190640100000000811115610b0857600080fd5b820183602082011115610b1a57600080fd5b80359060200191846001830284011164010000000083111715610b3c57600080fd5b91908080601f016020809104026020016040519081016040528093929190818152602001838380828437600081840152601f19601f820116905080830192505050505050509192919290505050611d03565b005b348015610b9c57600080fd5b50610bc960048036036020811015610bb357600080fd5b8101908080359060200190929190505050611d7b565b005b348015610bd757600080fd5b50610c0460048036036020811015610bee57600080fd5b8101908080359060200190929190505050611fa8565b6040518080602001828103825283818151815260200191508051906020019080838360005b83811015610c44578082015181840152602081019050610c29565b50505050905090810190601f168015610c715780820380516001836020036101000a031916815260200191505b509250505060405180910390f35b348015610c8b57600080fd5b50610cb860048036036020811015610ca257600080fd5b8101908080359060200190929190505050612279565b005b348015610cc657600080fd5b50610d2960048036036040811015610cdd57600080fd5b81019080803573ffffffffffffffffffffffffffffffffffffffff169060200190929190803573ffffffffffffffffffffffffffffffffffffffff1690602001909291905050506123fe565b604051808215151515815260200191505060405180910390f35b348015610d4f57600080fd5b50610d9260048036036020811015610d6657600080fd5b81019080803573ffffffffffffffffffffffffffffffffffffffff169060200190929190505050612492565b005b610e4d60048036036020811015610daa57600080fd5b8101908080359060200190640100000000811115610dc757600080fd5b820183602082011115610dd957600080fd5b80359060200191846001830284011164010000000083111715610dfb57600080fd5b91908080601f016020809104026020016040519081016040528093929190818152602001838380828437600081840152601f19601f820116905080830192505050505050509192919290505050612687565b005b6000806000837bffffffffffffffffffffffffffffffffffffffffffffffffffffffff19167bffffffffffffffffffffffffffffffffffffffffffffffffffffffff1916815260200190815260200160002060009054906101000a900460ff169050919050565b606060068054600181600116156101000203166002900480601f016020809104026020016040519081016040528092919081815260200182805460018160011615610100020316600290048015610f4e5780601f10610f2357610100808354040283529160200191610f4e565b820191906000526020600020905b815481529060010190602001808311610f3157829003601f168201915b5050505050905090565b6000610f6382612763565b610fb8576040517f08c379a000000000000000000000000000000000000000000000000000000000815260040180806020018281038252602c815260200180614555602c913960400191505060405180910390fd5b6004600083815260200190815260200160002060009054906101000a900473ffffffffffffffffffffffffffffffffffffffff169050919050565b6000610ffe826113b3565b90508073ffffffffffffffffffffffffffffffffffffffff168373ffffffffffffffffffffffffffffffffffffffff161415611085576040517f08c379a00000000000000000000000000000000000000000000000000000000081526004018080602001828103825260218152602001806146056021913960400191505060405180910390fd5b8073ffffffffffffffffffffffffffffffffffffffff166110a4612780565b73ffffffffffffffffffffffffffffffffffffffff1614806110d357506110d2816110cd612780565b6123fe565b5b611128576040517f08c379a00000000000000000000000000000000000000000000000000000000081526004018080602001828103825260388152602001806144a86038913960400191505060405180910390fd5b6111328383612788565b505050565b60006111436002612841565b905090565b611159611153612780565b82612856565b6111ae576040517f08c379a00000000000000000000000000000000000000000000000000000000081526004018080602001828103825260318152602001806146266031913960400191505060405180910390fd5b6111b983838361294a565b505050565b600061121182600160008673ffffffffffffffffffffffffffffffffffffffff1673ffffffffffffffffffffffffffffffffffffffff168152602001908152602001600020612b8d90919063ffffffff16565b905092915050565b61123483838360405180602001604052806000815250611d03565b505050565b61124281612763565b6112b4576040517f08c379a00000000000000000000000000000000000000000000000000000000081526004018080602001828103825260148152602001807f4c616e64206e6f7420726567697374657265642100000000000000000000000081525060200191505060405180910390fd5b60006112bf826116d1565b90508073ffffffffffffffffffffffffffffffffffffffff16639cf5453d34336040518363ffffffff1660e01b8152600401808273ffffffffffffffffffffffffffffffffffffffff1673ffffffffffffffffffffffffffffffffffffffff1681526020019150506000604051808303818588803b15801561134057600080fd5b505af1158015611354573d6000803e3d6000fd5b50505050505050565b600080611374836002612ba790919063ffffffff16565b50905080915050919050565b600c6020528060005260406000206000915054906101000a900473ffffffffffffffffffffffffffffffffffffffff1681565b60006113e38260405180606001604052806029815260200161450a602991396002612bd69092919063ffffffff16565b9050919050565b606060098054600181600116156101000203166002900480601f0160208091040260200160405190810160405280929190818152602001828054600181600116156101000203166002900480156114825780601f1061145757610100808354040283529160200191611482565b820191906000526020600020905b81548152906001019060200180831161146557829003601f168201915b5050505050905090565b60008073ffffffffffffffffffffffffffffffffffffffff168273ffffffffffffffffffffffffffffffffffffffff161415611513576040517f08c379a000000000000000000000000000000000000000000000000000000000815260040180806020018281038252602a8152602001806144e0602a913960400191505060405180910390fd5b61155a600160008473ffffffffffffffffffffffffffffffffffffffff1673ffffffffffffffffffffffffffffffffffffffff168152602001908152602001600020612bf5565b9050919050565b611569612780565b73ffffffffffffffffffffffffffffffffffffffff1661158761170e565b73ffffffffffffffffffffffffffffffffffffffff1614611610576040517f08c379a00000000000000000000000000000000000000000000000000000000081526004018080602001828103825260208152602001807f4f776e61626c653a2063616c6c6572206973206e6f7420746865206f776e657281525060200191505060405180910390fd5b600073ffffffffffffffffffffffffffffffffffffffff16600a60009054906101000a900473ffffffffffffffffffffffffffffffffffffffff1673ffffffffffffffffffffffffffffffffffffffff167f8be0079c531659141344cd1fd0a4f28419497f9722a3daafe3b4186f6b6457e060405160405180910390a36000600a60006101000a81548173ffffffffffffffffffffffffffffffffffffffff021916908373ffffffffffffffffffffffffffffffffffffffff160217905550565b6000600c600083815260200190815260200160002060009054906101000a900473ffffffffffffffffffffffffffffffffffffffff169050919050565b6000600a60009054906101000a900473ffffffffffffffffffffffffffffffffffffffff16905090565b606060078054600181600116156101000203166002900480601f0160208091040260200160405190810160405280929190818152602001828054600181600116156101000203166002900480156117d05780601f106117a5576101008083540402835291602001916117d0565b820191906000526020600020905b8154815290600101906020018083116117b357829003601f168201915b5050505050905090565b60006117e582612763565b611857576040517f08c379a00000000000000000000000000000000000000000000000000000000081526004018080602001828103825260148152602001807f4c616e64206e6f7420726567697374657265642100000000000000000000000081525060200191505060405180910390fd5b6000611862836116d1565b90508073ffffffffffffffffffffffffffffffffffffffff166312fa6feb6040518163ffffffff1660e01b815260040160206040518083038186803b1580156118aa57600080fd5b505afa1580156118be573d6000803e3d6000fd5b505050506040513d60208110156118d457600080fd5b8101908080519060200190929190505050915050919050565b6118f5612780565b73ffffffffffffffffffffffffffffffffffffffff168273ffffffffffffffffffffffffffffffffffffffff161415611996576040517f08c379a00000000000000000000000000000000000000000000000000000000081526004018080602001828103825260198152602001807f4552433732313a20617070726f766520746f2063616c6c65720000000000000081525060200191505060405180910390fd5b80600560006119a3612780565b73ffffffffffffffffffffffffffffffffffffffff1673ffffffffffffffffffffffffffffffffffffffff16815260200190815260200160002060008473ffffffffffffffffffffffffffffffffffffffff1673ffffffffffffffffffffffffffffffffffffffff16815260200190815260200160002060006101000a81548160ff0219169083151502179055508173ffffffffffffffffffffffffffffffffffffffff16611a50612780565b73ffffffffffffffffffffffffffffffffffffffff167f17307eab39ab6107e8899845ad3d59bd9653f200f220920489ca2b5937696c3183604051808215151515815260200191505060405180910390a35050565b6000611ab082612763565b611b22576040517f08c379a00000000000000000000000000000000000000000000000000000000081526004018080602001828103825260148152602001807f4c616e64206e6f7420726567697374657265642100000000000000000000000081525060200191505060405180910390fd5b6000611b2d836116d1565b90508073ffffffffffffffffffffffffffffffffffffffff1663d57bde796040518163ffffffff1660e01b815260040160206040518083038186803b158015611b7557600080fd5b505afa158015611b89573d6000803e3d6000fd5b505050506040513d6020811015611b9f57600080fd5b8101908080519060200190929190505050915050919050565b6000611bc383612763565b611c35576040517f08c379a00000000000000000000000000000000000000000000000000000000081526004018080602001828103825260148152602001807f4c616e64206e6f7420726567697374657265642100000000000000000000000081525060200191505060405180910390fd5b6000611c40846116d1565b90508073ffffffffffffffffffffffffffffffffffffffff1663c937f9fd846040518263ffffffff1660e01b8152600401808273ffffffffffffffffffffffffffffffffffffffff1673ffffffffffffffffffffffffffffffffffffffff16815260200191505060206040518083038186803b158015611cbf57600080fd5b505afa158015611cd3573d6000803e3d6000fd5b505050506040513d6020811015611ce957600080fd5b810190808051906020019092919050505091505092915050565b611d14611d0e612780565b83612856565b611d69576040517f08c379a00000000000000000000000000000000000000000000000000000000081526004018080602001828103825260318152602001806146266031913960400191505060405180910390fd5b611d7584848484612c0a565b50505050565b611d83612780565b73ffffffffffffffffffffffffffffffffffffffff16611da161170e565b73ffffffffffffffffffffffffffffffffffffffff1614611e2a576040517f08c379a00000000000000000000000000000000000000000000000000000000081526004018080602001828103825260208152602001807f4f776e61626c653a2063616c6c6572206973206e6f7420746865206f776e657281525060200191505060405180910390fd5b611e3381612763565b611ea5576040517f08c379a00000000000000000000000000000000000000000000000000000000081526004018080602001828103825260148152602001807f4c616e64206e6f7420726567697374657265642100000000000000000000000081525060200191505060405180910390fd5b6000611eb0826116d1565b90508073ffffffffffffffffffffffffffffffffffffffff16632a24f46c6040518163ffffffff1660e01b8152600401600060405180830381600087803b158015611efa57600080fd5b505af1158015611f0e573d6000803e3d6000fd5b50505050611fa4611f1d61170e565b8273ffffffffffffffffffffffffffffffffffffffff166391f901576040518163ffffffff1660e01b815260040160206040518083038186803b158015611f6357600080fd5b505afa158015611f77573d6000803e3d6000fd5b505050506040513d6020811015611f8d57600080fd5b810190808051906020019092919050505084611219565b5050565b6060611fb382612763565b612008576040517f08c379a000000000000000000000000000000000000000000000000000000000815260040180806020018281038252602f8152602001806145d6602f913960400191505060405180910390fd5b6060600860008481526020019081526020016000208054600181600116156101000203166002900480601f0160208091040260200160405190810160405280929190818152602001828054600181600116156101000203166002900480156120b15780601f10612086576101008083540402835291602001916120b1565b820191906000526020600020905b81548152906001019060200180831161209457829003601f168201915b5050505050905060606120c26113ea565b90506000815114156120d8578192505050612274565b6000825111156121a95780826040516020018083805190602001908083835b6020831061211a57805182526020820191506020810190506020830392506120f7565b6001836020036101000a03801982511681845116808217855250505050505090500182805190602001908083835b6020831061216b5780518252602082019150602081019050602083039250612148565b6001836020036101000a0380198251168184511680821785525050505050509050019250505060405160208183030381529060405292505050612274565b806121b385612c7c565b6040516020018083805190602001908083835b602083106121e957805182526020820191506020810190506020830392506121c6565b6001836020036101000a03801982511681845116808217855250505050505090500182805190602001908083835b6020831061223a5780518252602082019150602081019050602083039250612217565b6001836020036101000a03801982511681845116808217855250505050505090500192505050604051602081830303815290604052925050505b919050565b612281612780565b73ffffffffffffffffffffffffffffffffffffffff1661229f61170e565b73ffffffffffffffffffffffffffffffffffffffff1614612328576040517f08c379a00000000000000000000000000000000000000000000000000000000081526004018080602001828103825260208152602001807f4f776e61626c653a2063616c6c6572206973206e6f7420746865206f776e657281525060200191505060405180910390fd5b600b60009054906101000a900473ffffffffffffffffffffffffffffffffffffffff1660405161235790613a45565b808273ffffffffffffffffffffffffffffffffffffffff1673ffffffffffffffffffffffffffffffffffffffff168152602001915050604051809103906000f0801580156123a9573d6000803e3d6000fd5b50600c600083815260200190815260200160002060006101000a81548173ffffffffffffffffffffffffffffffffffffffff021916908373ffffffffffffffffffffffffffffffffffffffff16021790555050565b6000600560008473ffffffffffffffffffffffffffffffffffffffff1673ffffffffffffffffffffffffffffffffffffffff16815260200190815260200160002060008373ffffffffffffffffffffffffffffffffffffffff1673ffffffffffffffffffffffffffffffffffffffff16815260200190815260200160002060009054906101000a900460ff16905092915050565b61249a612780565b73ffffffffffffffffffffffffffffffffffffffff166124b861170e565b73ffffffffffffffffffffffffffffffffffffffff1614612541576040517f08c379a00000000000000000000000000000000000000000000000000000000081526004018080602001828103825260208152602001807f4f776e61626c653a2063616c6c6572206973206e6f7420746865206f776e657281525060200191505060405180910390fd5b600073ffffffffffffffffffffffffffffffffffffffff168173ffffffffffffffffffffffffffffffffffffffff1614156125c7576040517f08c379a000000000000000000000000000000000000000000000000000000000815260040180806020018281038252602681526020018061440c6026913960400191505060405180910390fd5b8073ffffffffffffffffffffffffffffffffffffffff16600a60009054906101000a900473ffffffffffffffffffffffffffffffffffffffff1673ffffffffffffffffffffffffffffffffffffffff167f8be0079c531659141344cd1fd0a4f28419497f9722a3daafe3b4186f6b6457e060405160405180910390a380600a60006101000a81548173ffffffffffffffffffffffffffffffffffffffff021916908373ffffffffffffffffffffffffffffffffffffffff16021790555050565b61268f612780565b73ffffffffffffffffffffffffffffffffffffffff166126ad61170e565b73ffffffffffffffffffffffffffffffffffffffff1614612736576040517f08c379a00000000000000000000000000000000000000000000000000000000081526004018080602001828103825260208152602001807f4f776e61626c653a2063616c6c6572206973206e6f7420746865206f776e657281525060200191505060405180910390fd5b6000612740611137565b905061274c3382612dac565b6127568183612fa0565b61275f81612279565b5050565b600061277982600261302a90919063ffffffff16565b9050919050565b600033905090565b816004600083815260200190815260200160002060006101000a81548173ffffffffffffffffffffffffffffffffffffffff021916908373ffffffffffffffffffffffffffffffffffffffff160217905550808273ffffffffffffffffffffffffffffffffffffffff166127fb836113b3565b73ffffffffffffffffffffffffffffffffffffffff167f8c5be1e5ebec7d5bd14f71427d1e84f3dd0314c0f7b2291e5b200ac8c7c3b92560405160405180910390a45050565b600061284f82600001613044565b9050919050565b600061286182612763565b6128b6576040517f08c379a000000000000000000000000000000000000000000000000000000000815260040180806020018281038252602c81526020018061447c602c913960400191505060405180910390fd5b60006128c1836113b3565b90508073ffffffffffffffffffffffffffffffffffffffff168473ffffffffffffffffffffffffffffffffffffffff16148061293057508373ffffffffffffffffffffffffffffffffffffffff1661291884610f58565b73ffffffffffffffffffffffffffffffffffffffff16145b80612941575061294081856123fe565b5b91505092915050565b8273ffffffffffffffffffffffffffffffffffffffff1661296a826113b3565b73ffffffffffffffffffffffffffffffffffffffff16146129d6576040517f08c379a00000000000000000000000000000000000000000000000000000000081526004018080602001828103825260298152602001806145ad6029913960400191505060405180910390fd5b600073ffffffffffffffffffffffffffffffffffffffff168273ffffffffffffffffffffffffffffffffffffffff161415612a5c576040517f08c379a00000000000000000000000000000000000000000000000000000000081526004018080602001828103825260248152602001806144326024913960400191505060405180910390fd5b612a67838383613055565b612a72600082612788565b612ac381600160008673ffffffffffffffffffffffffffffffffffffffff1673ffffffffffffffffffffffffffffffffffffffff16815260200190815260200160002061305a90919063ffffffff16565b50612b1581600160008573ffffffffffffffffffffffffffffffffffffffff1673ffffffffffffffffffffffffffffffffffffffff16815260200190815260200160002061307490919063ffffffff16565b50612b2c8183600261308e9092919063ffffffff16565b50808273ffffffffffffffffffffffffffffffffffffffff168473ffffffffffffffffffffffffffffffffffffffff167fddf252ad1be2c89b69c2b068fc378daa952ba7f163c4a11628f55a4df523b3ef60405160405180910390a4505050565b6000612b9c83600001836130c3565b60001c905092915050565b600080600080612bba8660000186613146565b915091508160001c8160001c8090509350935050509250929050565b6000612be9846000018460001b846131df565b60001c90509392505050565b6000612c03826000016132d5565b9050919050565b612c1584848461294a565b612c21848484846132e6565b612c76576040517f08c379a00000000000000000000000000000000000000000000000000000000081526004018080602001828103825260328152602001806143da6032913960400191505060405180910390fd5b50505050565b60606000821415612cc4576040518060400160405280600181526020017f30000000000000000000000000000000000000000000000000000000000000008152509050612da7565b600082905060005b60008214612cee578080600101915050600a8281612ce657fe5b049150612ccc565b6060816040519080825280601f01601f191660200182016040528015612d235781602001600182028038833980820191505090505b50905060006001830390508593505b60008414612d9f57600a8481612d4457fe5b0660300160f81b82828060019003935081518110612d5e57fe5b60200101907effffffffffffffffffffffffffffffffffffffffffffffffffffffffffffff1916908160001a905350600a8481612d9757fe5b049350612d32565b819450505050505b919050565b600073ffffffffffffffffffffffffffffffffffffffff168273ffffffffffffffffffffffffffffffffffffffff161415612e4f576040517f08c379a00000000000000000000000000000000000000000000000000000000081526004018080602001828103825260208152602001807f4552433732313a206d696e7420746f20746865207a65726f206164647265737381525060200191505060405180910390fd5b612e5881612763565b15612ecb576040517f08c379a000000000000000000000000000000000000000000000000000000000815260040180806020018281038252601c8152602001807f4552433732313a20746f6b656e20616c7265616479206d696e7465640000000081525060200191505060405180910390fd5b612ed760008383613055565b612f2881600160008573ffffffffffffffffffffffffffffffffffffffff1673ffffffffffffffffffffffffffffffffffffffff16815260200190815260200160002061307490919063ffffffff16565b50612f3f8183600261308e9092919063ffffffff16565b50808273ffffffffffffffffffffffffffffffffffffffff16600073ffffffffffffffffffffffffffffffffffffffff167fddf252ad1be2c89b69c2b068fc378daa952ba7f163c4a11628f55a4df523b3ef60405160405180910390a45050565b612fa982612763565b612ffe576040517f08c379a000000000000000000000000000000000000000000000000000000000815260040180806020018281038252602c815260200180614581602c913960400191505060405180910390fd5b80600860008481526020019081526020016000209080519060200190613025929190613a52565b505050565b600061303c836000018360001b61352b565b905092915050565b600081600001805490509050919050565b505050565b600061306c836000018360001b61354e565b905092915050565b6000613086836000018360001b613636565b905092915050565b60006130ba846000018460001b8473ffffffffffffffffffffffffffffffffffffffff1660001b6136a6565b90509392505050565b600081836000018054905011613124576040517f08c379a00000000000000000000000000000000000000000000000000000000081526004018080602001828103825260228152602001806143b86022913960400191505060405180910390fd5b82600001828154811061313357fe5b9060005260206000200154905092915050565b600080828460000180549050116131a8576040517f08c379a00000000000000000000000000000000000000000000000000000000081526004018080602001828103825260228152602001806145336022913960400191505060405180910390fd5b60008460000184815481106131b957fe5b906000526020600020906002020190508060000154816001015492509250509250929050565b600080846001016000858152602001908152602001600020549050600081141583906132a6576040517f08c379a00000000000000000000000000000000000000000000000000000000081526004018080602001828103825283818151815260200191508051906020019080838360005b8381101561326b578082015181840152602081019050613250565b50505050905090810190601f1680156132985780820380516001836020036101000a031916815260200191505b509250505060405180910390fd5b508460000160018203815481106132b957fe5b9060005260206000209060020201600101549150509392505050565b600081600001805490509050919050565b60006133078473ffffffffffffffffffffffffffffffffffffffff16613782565b6133145760019050613523565b60606134aa63150b7a0260e01b613329612780565b888787604051602401808573ffffffffffffffffffffffffffffffffffffffff1673ffffffffffffffffffffffffffffffffffffffff1681526020018473ffffffffffffffffffffffffffffffffffffffff1673ffffffffffffffffffffffffffffffffffffffff16815260200183815260200180602001828103825283818151815260200191508051906020019080838360005b838110156133d95780820151818401526020810190506133be565b50505050905090810190601f1680156134065780820380516001836020036101000a031916815260200191505b5095505050505050604051602081830303815290604052907bffffffffffffffffffffffffffffffffffffffffffffffffffffffff19166020820180517bffffffffffffffffffffffffffffffffffffffffffffffffffffffff83818316178352505050506040518060600160405280603281526020016143da603291398773ffffffffffffffffffffffffffffffffffffffff166137959092919063ffffffff16565b905060008180602001905160208110156134c357600080fd5b8101908080519060200190929190505050905063150b7a0260e01b7bffffffffffffffffffffffffffffffffffffffffffffffffffffffff1916817bffffffffffffffffffffffffffffffffffffffffffffffffffffffff191614925050505b949350505050565b600080836001016000848152602001908152602001600020541415905092915050565b6000808360010160008481526020019081526020016000205490506000811461362a576000600182039050600060018660000180549050039050600086600001828154811061359957fe5b90600052602060002001549050808760000184815481106135b657fe5b90600052602060002001819055506001830187600101600083815260200190815260200160002081905550866000018054806135ee57fe5b60019003818190600052602060002001600090559055866001016000878152602001908152602001600020600090556001945050505050613630565b60009150505b92915050565b600061364283836137ad565b61369b5782600001829080600181540180825580915050600190039060005260206000200160009091909190915055826000018054905083600101600084815260200190815260200160002081905550600190506136a0565b600090505b92915050565b600080846001016000858152602001908152602001600020549050600081141561374d5784600001604051806040016040528086815260200185815250908060018154018082558091505060019003906000526020600020906002020160009091909190915060008201518160000155602082015181600101555050846000018054905085600101600086815260200190815260200160002081905550600191505061377b565b8285600001600183038154811061376057fe5b90600052602060002090600202016001018190555060009150505b9392505050565b600080823b905060008111915050919050565b60606137a484846000856137d0565b90509392505050565b600080836001016000848152602001908152602001600020541415905092915050565b60608247101561382b576040517f08c379a00000000000000000000000000000000000000000000000000000000081526004018080602001828103825260268152602001806144566026913960400191505060405180910390fd5b61383485613782565b6138a6576040517f08c379a000000000000000000000000000000000000000000000000000000000815260040180806020018281038252601d8152602001807f416464726573733a2063616c6c20746f206e6f6e2d636f6e747261637400000081525060200191505060405180910390fd5b600060608673ffffffffffffffffffffffffffffffffffffffff1685876040518082805190602001908083835b602083106138f657805182526020820191506020810190506020830392506138d3565b6001836020036101000a03801982511681845116808217855250505050505090500191505060006040518083038185875af1925050503d8060008114613958576040519150601f19603f3d011682016040523d82523d6000602084013e61395d565b606091505b509150915061396d828286613979565b92505050949350505050565b6060831561398957829050613a3e565b60008351111561399c5782518084602001fd5b816040517f08c379a00000000000000000000000000000000000000000000000000000000081526004018080602001828103825283818151815260200191508051906020019080838360005b83811015613a035780820151818401526020810190506139e8565b50505050905090810190601f168015613a305780820380516001836020036101000a031916815260200191505b509250505060405180910390fd5b9392505050565b6108c080613af883390190565b828054600181600116156101000203166002900490600052602060002090601f016020900481019282601f10613a9357805160ff1916838001178555613ac1565b82800160010185558215613ac1579182015b82811115613ac0578251825591602001919060010190613aa5565b5b509050613ace9190613ad2565b5090565b613af491905b80821115613af0576000816000905550600101613ad8565b5090565b9056fe608060405234801561001057600080fd5b506040516108c03803806108c08339818101604052602081101561003357600080fd5b8101908080519060200190929190505050806000806101000a81548173ffffffffffffffffffffffffffffffffffffffff021916908373ffffffffffffffffffffffffffffffffffffffff1602179055505061082c806100946000396000f3fe60806040526004361061007b5760003560e01c806391f901571161004e57806391f901571461014c5780639cf5453d146101a3578063c937f9fd146101e7578063d57bde791461024c5761007b565b806312fa6feb146100805780632a24f46c146100af57806338af3eed146100c65780633ccfd60b1461011d575b600080fd5b34801561008c57600080fd5b50610095610277565b604051808215151515815260200191505060405180910390f35b3480156100bb57600080fd5b506100c461028a565b005b3480156100d257600080fd5b506100db610406565b604051808273ffffffffffffffffffffffffffffffffffffffff1673ffffffffffffffffffffffffffffffffffffffff16815260200191505060405180910390f35b34801561012957600080fd5b5061013261042b565b604051808215151515815260200191505060405180910390f35b34801561015857600080fd5b5061016161054f565b604051808273ffffffffffffffffffffffffffffffffffffffff1673ffffffffffffffffffffffffffffffffffffffff16815260200191505060405180910390f35b6101e5600480360360208110156101b957600080fd5b81019080803573ffffffffffffffffffffffffffffffffffffffff169060200190929190505050610575565b005b3480156101f357600080fd5b506102366004803603602081101561020a57600080fd5b81019080803573ffffffffffffffffffffffffffffffffffffffff169060200190929190505050610784565b6040518082815260200191505060405180910390f35b34801561025857600080fd5b506102616107cd565b6040518082815260200191505060405180910390f35b600460009054906101000a900460ff1681565b600460009054906101000a900460ff16156102f0576040517f08c379a00000000000000000000000000000000000000000000000000000000081526004018080602001828103825260238152602001806107d46023913960400191505060405180910390fd5b6001600460006101000a81548160ff0219169083151502179055507fdaec4582d5d9595688c8c98545fdd1c696d41c6aeaeb636737e84ed2f5c00eda600160009054906101000a900473ffffffffffffffffffffffffffffffffffffffff16600254604051808373ffffffffffffffffffffffffffffffffffffffff1673ffffffffffffffffffffffffffffffffffffffff1681526020018281526020019250505060405180910390a16000809054906101000a900473ffffffffffffffffffffffffffffffffffffffff1673ffffffffffffffffffffffffffffffffffffffff166108fc6002549081150290604051600060405180830381858888f19350505050158015610403573d6000803e3d6000fd5b50565b6000809054906101000a900473ffffffffffffffffffffffffffffffffffffffff1681565b600080600360003373ffffffffffffffffffffffffffffffffffffffff1673ffffffffffffffffffffffffffffffffffffffff1681526020019081526020016000205490506000811115610546576000600360003373ffffffffffffffffffffffffffffffffffffffff1673ffffffffffffffffffffffffffffffffffffffff168152602001908152602001600020819055503373ffffffffffffffffffffffffffffffffffffffff166108fc829081150290604051600060405180830381858888f193505050506105455780600360003373ffffffffffffffffffffffffffffffffffffffff1673ffffffffffffffffffffffffffffffffffffffff16815260200190815260200160002081905550600091505061054c565b5b60019150505b90565b600160009054906101000a900473ffffffffffffffffffffffffffffffffffffffff1681565b60025434116105ec576040517f08c379a000000000000000000000000000000000000000000000000000000000815260040180806020018281038252601e8152602001807f546865726520616c7265616479206973206120686967686572206269642e000081525060200191505060405180910390fd5b600460009054906101000a900460ff1615610652576040517f08c379a00000000000000000000000000000000000000000000000000000000081526004018080602001828103825260238152602001806107d46023913960400191505060405180910390fd5b6000600254146106ce5760025460036000600160009054906101000a900473ffffffffffffffffffffffffffffffffffffffff1673ffffffffffffffffffffffffffffffffffffffff1673ffffffffffffffffffffffffffffffffffffffff168152602001908152602001600020600082825401925050819055505b80600160006101000a81548173ffffffffffffffffffffffffffffffffffffffff021916908373ffffffffffffffffffffffffffffffffffffffff160217905550346002819055507ff4757a49b326036464bec6fe419a4ae38c8a02ce3e68bf0809674f6aab8ad3008134604051808373ffffffffffffffffffffffffffffffffffffffff1673ffffffffffffffffffffffffffffffffffffffff1681526020018281526020019250505060405180910390a150565b6000600360008373ffffffffffffffffffffffffffffffffffffffff1673ffffffffffffffffffffffffffffffffffffffff168152602001908152602001600020549050919050565b6002548156fe61756374696f6e456e642068617320616c7265616479206265656e2063616c6c65642ea26469706673582212208815cab034be3336e0a8b13544be5298cb3604465f08c781e1c93e3983e86e6e64736f6c63430006020033456e756d657261626c655365743a20696e646578206f7574206f6620626f756e64734552433732313a207472616e7366657220746f206e6f6e20455243373231526563656976657220696d706c656d656e7465724f776e61626c653a206e6577206f776e657220697320746865207a65726f20616464726573734552433732313a207472616e7366657220746f20746865207a65726f2061646472657373416464726573733a20696e73756666696369656e742062616c616e636520666f722063616c6c4552433732313a206f70657261746f7220717565727920666f72206e6f6e6578697374656e7420746f6b656e4552433732313a20617070726f76652063616c6c6572206973206e6f74206f776e6572206e6f7220617070726f76656420666f7220616c6c4552433732313a2062616c616e636520717565727920666f7220746865207a65726f20616464726573734552433732313a206f776e657220717565727920666f72206e6f6e6578697374656e7420746f6b656e456e756d657261626c654d61703a20696e646578206f7574206f6620626f756e64734552433732313a20617070726f76656420717565727920666f72206e6f6e6578697374656e7420746f6b656e4552433732314d657461646174613a2055524920736574206f66206e6f6e6578697374656e7420746f6b656e4552433732313a207472616e73666572206f6620746f6b656e2074686174206973206e6f74206f776e4552433732314d657461646174613a2055524920717565727920666f72206e6f6e6578697374656e7420746f6b656e4552433732313a20617070726f76616c20746f2063757272656e74206f776e65724552433732313a207472616e736665722063616c6c6572206973206e6f74206f776e6572206e6f7220617070726f766564a2646970667358221220b5bd6d1db07e7c6ccb4fcbe0c44d7ad1e77c8e7eb5d24a09d04af9b92cb44e1564736f6c63430006020033",
  "source": "pragma solidity ^0.6.2;\n\nimport '@openzeppelin/contracts/token/ERC721/ERC721.sol';\nimport '@openzeppelin/contracts/access/Ownable.sol';\nimport './MartianAuction.sol';\n\ncontract MartianMarket is ERC721, Ownable {\n    constructor() ERC721(\"MartianMarket\", \"MARS\") public {}\n\n    address payable foundationAddress = msg.sender;\n\n    mapping(uint => MartianAuction) public auctions;\n\n    function registerLand(string memory tokenURI) public payable onlyOwner {\n        uint _id = totalSupply();\n        _mint(msg.sender, _id);\n        _setTokenURI(_id, tokenURI);\n        createAuction(_id);\n    }\n\n    function createAuction(uint tokenId) public onlyOwner {\n        auctions[tokenId] = new MartianAuction(foundationAddress);\n    }\n\n    function endAuction(uint tokenId) public onlyOwner {\n        require(_exists(tokenId), \"Land not registered!\");\n        MartianAuction auction = getAuction(tokenId);\n        auction.auctionEnd();\n        safeTransferFrom(owner(), auction.highestBidder(), tokenId);\n    }\n\n    function getAuction(uint tokenId) public view returns(MartianAuction auction) {\n        return auctions[tokenId];\n    }\n\n    function auctionEnded(uint tokenId) public view returns(bool) {\n        require(_exists(tokenId), \"Land not registered!\");\n        MartianAuction auction = getAuction(tokenId);\n        return auction.ended();\n    }\n\n    function highestBid(uint tokenId) public view returns(uint) {\n        require(_exists(tokenId), \"Land not registered!\");\n        MartianAuction auction = getAuction(tokenId);\n        return auction.highestBid();\n    }\n\n    function pendingReturn(uint tokenId, address sender) public view returns(uint) {\n        require(_exists(tokenId), \"Land not registered!\");\n        MartianAuction auction = getAuction(tokenId);\n        return auction.pendingReturn(sender);\n    }\n\n    function bid(uint tokenId) public payable {\n        require(_exists(tokenId), \"Land not registered!\");\n        MartianAuction auction = getAuction(tokenId);\n        auction.bid.value(msg.value)(msg.sender);\n    }\n\n}\n",
  "sourcePath": "/Users/sinan/Documents/martian_market/contracts/MartianMarket.sol",
  "compiler": {
    "name": "solc",
    "version": "0.6.2+commit.bacdbe57.Emscripten.clang"
  },
  "schemaVersion": "3.4.4",
  "updatedAt": "2022-01-31T06:24:43.784Z",
  "networkType": "ethereum",
  "devdoc": {
    "methods": {
      "approve(address,uint256)": {
        "details": "See {IERC721-approve}."
      },
      "balanceOf(address)": {
        "details": "See {IERC721-balanceOf}."
      },
      "baseURI()": {
        "details": "Returns the base URI set via {_setBaseURI}. This will be automatically added as a prefix in {tokenURI} to each token's URI, or to the token ID if no specific URI is set for that token ID."
      },
      "getApproved(uint256)": {
        "details": "See {IERC721-getApproved}."
      },
      "isApprovedForAll(address,address)": {
        "details": "See {IERC721-isApprovedForAll}."
      },
      "name()": {
        "details": "See {IERC721Metadata-name}."
      },
      "owner()": {
        "details": "Returns the address of the current owner."
      },
      "ownerOf(uint256)": {
        "details": "See {IERC721-ownerOf}."
      },
      "renounceOwnership()": {
        "details": "Leaves the contract without owner. It will not be possible to call `onlyOwner` functions anymore. Can only be called by the current owner.     * NOTE: Renouncing ownership will leave the contract without an owner, thereby removing any functionality that is only available to the owner."
      },
      "safeTransferFrom(address,address,uint256)": {
        "details": "See {IERC721-safeTransferFrom}."
      },
      "safeTransferFrom(address,address,uint256,bytes)": {
        "details": "See {IERC721-safeTransferFrom}."
      },
      "setApprovalForAll(address,bool)": {
        "details": "See {IERC721-setApprovalForAll}."
      },
      "supportsInterface(bytes4)": {
        "details": "See {IERC165-supportsInterface}.     * Time complexity O(1), guaranteed to always use less than 30 000 gas."
      },
      "symbol()": {
        "details": "See {IERC721Metadata-symbol}."
      },
      "tokenByIndex(uint256)": {
        "details": "See {IERC721Enumerable-tokenByIndex}."
      },
      "tokenOfOwnerByIndex(address,uint256)": {
        "details": "See {IERC721Enumerable-tokenOfOwnerByIndex}."
      },
      "tokenURI(uint256)": {
        "details": "See {IERC721Metadata-tokenURI}."
      },
      "totalSupply()": {
        "details": "See {IERC721Enumerable-totalSupply}."
      },
      "transferFrom(address,address,uint256)": {
        "details": "See {IERC721-transferFrom}."
      },
      "transferOwnership(address)": {
        "details": "Transfers ownership of the contract to a new account (`newOwner`). Can only be called by the current owner."
      }
    }
  },
  "userdoc": {
    "methods": {}
  }
}